:1002660075E201E4F5E11204CB1203A990000074D3
:1002760001F0E4F512AF127E001204167400251286
:10028600F582E43400F583EFF00512E512C39440DD
:1002960040E3D2AF1202EB12034A1204B8900000F8
:1002A600E024FF92F8A3E0FF120003900002E0FFB3
:1002B600120507900003E0FF12050E900004E0FF10
:1002C600120515E4F512AF127E0074002512F582B0
:1002D600E43400F583E0FD1204310512E512C394FF
:0502E6004040E380B878
:1003A90043BA8090FE807481F090FE85745AF09073
:1003B900FE84E4F090FE837478F0D200D201E4F573
:1003C9001374002513F582E43400F583E090FE866A
:0803D900F0759230759130229D
:0300C30002000E2A
:10000E00C0E0C083C082C0D075D000C006C00790CB
:10001E00FE84E030E608E054BFF0D200807290FE1D
:10002E0084E030E531E054DFF0300004C20080603F
:10003E0030010CC20190FE87E0F51324008034904D
:10004E00FE87E0FFAE13051374002EF582E4340034
:10005E00F583EFF0803A90FE84E030E424E054EF34
:10006E00F0E030E10890FE8674FFF08023051374F3
:10007E00002513F582E43400F583E090FE86F080CF
:10008E000F90FE84E030E308E054F7F0D200D20186
:0D009E00D007D006D0D0D082D083D0E03281
:1004CB00E4F5C7F5C5F5C675C380F5C475F50C2203
:1004160075C78075F50C75C5018FC4EEFF8FC37562
:0B042600C65A75C6A500AFC20204CB89
:1004310075C78075F50C75C5028FC4EEFF8FC38D2E
:0B044100C275C65A75C6A5000204CBA8
:10044C0075C78075F50C75C5038FC4EEFF8FC3752A
:09045C00C65A75C6A5000204CBC6
:1002EB0043BA8075CC55E4F5CB90FECCF0A3F090DF
:1002FB00FEC87468F0A3F0A3F0A3F0A37433F0A3CB
:10030B00F090FED27404F0A3E4F090FEB1F0E04460
:10031B0001F0E04404F0E04410F0E04440F0A3E4CA
:10032B00F0E04402F0E04408F0E04420F0E04480C8
:0F033B00F090FEDD7480F090FEC0E04401F022EF
:10034A0043BA8075E2F0E4F5E190FEECF0A3F09098
:10035A00FEE87468F0A3F0A3F0A3F0A37433F0A34B
:10036A00F090FEF274FFF0A3F090FEB5E4F0E044E2
:10037A0001F0E04404F0E04410F0E04440F0A3E46B
:10038A00F0E04403F0E0440CF0E04430F0E044C014
:0F039A00F090FEFD7480F090FEE0E04401F02250
:1000AB00AD07AC06C3E49DFD74049C90FED5F0AF88
:0500BB0005A3EFF02297
:10046500AD07AC06C3E49DFD74049C90FED7F0AFC8
:0504750005A3EFF022D9
:10047A00AD07AC06C3E49DFD74049C90FED9F0AFB1
:05048A0005A3EFF022C4
:10048F00AD07AC06C3E49DFD74049C90FEDBF0AF9A
:05049F0005A3EFF022AF
:0B04DB00AC0690FEF5ECF0A3EFF02261
:0B04E600AC0690FEF7ECF0A3EFF02254
:0B04F100AC0690FEF9ECF0A3EFF02247
:0B04FC00AC0690FEFBECF0A3EFF0223A
:1004A40001100002080000020C0000020A00000211
:0304B4000E000037
:03000B000200C62A
:1000C600C0E0C0F0C083C082C0D075D000C000C000
:1000D60001C002C003C004C005C006C007900009E5
:1000E600E0FFD3940040061203E10201BF90000531
:1000F600E075F004A4FFD3E5099FE50895F0500EDE
:100106000509E509AE087002050814FF800F900086
:1001160005E075F004A4FFAEF08E08F5091200ABF9
:10012600900006E075F004A4FFD3E50D9FE50C955D
:10013600F0500E050DE50DAE0C7002050C14FF8097
:100146000F900006E075F004A4FFAEF08E0CF50DDE
:10015600120465900007E075F004A4FFD3E50B9F39
:10016600E50A95F0500E050BE50BAE0A7002050A7E
:1001760014FF800F900007E075F004A4FFAEF08E28
:100186000AF50B12047A900008E075F004A4FFD378
:10019600E50F9FE50E95F0500E050FE50FAE0E70BC
:1001A60002050E14FF800F900008E075F004A4FF0E
:1001B600AEF08E0EF50F12048FD007D006D005D004
:1001C60004D003D002D001D000D0D0D082D083D0CA
:0401D600F0D0E03253
:1004B800538E7F5389F0758A60758CF0C28DD28C0B
:0304C800D2A92294
:1003E1008F11C374FF9FFFE49400FE1200ABC3742E
:1003F100FF9511FFE49400FE120465C374FF95118B
:10040100FFE49400FE12047AC374FF9511FFE49493
:0504110000FE02048F53
:07000300EF7F00FE0204DBA9
:07050700EF7F00FE0204E695
:07050E00EF7F00FE0204F183
:07051500EF7F00FE0204FC71
:030000000201DA20
:0C01DA00787FE4F6D8FD75812002022138
:1001E600020266E493A3F8E493A34003F68001F2C7
:1001F60008DFF48029E493A3F85407240CC8C3331A
:10020600C4540F4420C8834004F456800146F6DFE8
:10021600E4800B01020408102040809004A4E47ED0
:10022600019360BCA3FF543F30E509541FFEE493DD
:10023600A360010ECF54C025E060A840B8E493A3A4
:10024600FAE493A3F8E493A3C8C582C8CAC583CACF
:10025600F0A3C8C582C8CAC583CADFE9DEE780BE87
:0104B7000044
:00000001FF
